{
  "_format": "hh-sol-artifact-1",
  "contractName": "MyToken1",
  "sourceName": "contracts/MyToken.sol",
  "abi": [
    {
      "inputs": [
        {
          "internalType": "address",
          "name": "",
          "type": "address"
        }
      ],
      "name": "balances",
      "outputs": [
        {
          "internalType": "uint256",
          "name": "",
          "type": "uint256"
        }
      ],
      "stateMutability": "view",
      "type": "function"
    },
    {
      "inputs": [
        {
          "internalType": "address",
          "name": "",
          "type": "address"
        }
      ],
      "name": "lockTime",
      "outputs": [
        {
          "internalType": "uint256",
          "name": "",
          "type": "uint256"
        }
      ],
      "stateMutability": "view",
      "type": "function"
    },
    {
      "inputs": [
        {
          "internalType": "uint256",
          "name": "amount",
          "type": "uint256"
        },
        {
          "internalType": "uint256",
          "name": "duration",
          "type": "uint256"
        }
      ],
      "name": "lockTokens",
      "outputs": [],
      "stateMutability": "nonpayable",
      "type": "function"
    },
    {
      "inputs": [],
      "name": "unlockTokens",
      "outputs": [],
      "stateMutability": "nonpayable",
      "type": "function"
    }
  ],
  "bytecode": "0x608060405234801561001057600080fd5b5061077b806100206000396000f3fe608060405234801561001057600080fd5b506004361061004c5760003560e01c806327e235e31461005157806389158d8e14610081578063a4beda631461009d578063f968f493146100cd575b600080fd5b61006b6004803603810190610066919061048c565b6100d7565b60405161007891906104d2565b60405180910390f35b61009b60048036038101906100969190610519565b6100ef565b005b6100b760048036038101906100b2919061048c565b6102b0565b6040516100c491906104d2565b60405180910390f35b6100d56102c8565b005b60006020528060005260406000206000915090505481565b6000803373ffffffffffffffffffffffffffffffffffffffff1673ffffffffffffffffffffffffffffffffffffffff16815260200190815260200160002054821115610170576040517f08c379a0000000000000000000000000000000000000000000000000000000008152600401610167906105b6565b60405180910390fd5b600081116101b3576040517f08c379a00000000000000000000000000000000000000000000000000000000081526004016101aa90610622565b60405180910390fd5b816000803373ffffffffffffffffffffffffffffffffffffffff1673ffffffffffffffffffffffffffffffffffffffff16815260200190815260200160002060008282546102019190610671565b92505081905550816000803073ffffffffffffffffffffffffffffffffffffffff1673ffffffffffffffffffffffffffffffffffffffff168152602001908152602001600020600082825461025691906106a5565b92505081905550804261026991906106a5565b600160003373ffffffffffffffffffffffffffffffffffffffff1673ffffffffffffffffffffffffffffffffffffffff168152602001908152602001600020819055505050565b60016020528060005260406000206000915090505481565b600160003373ffffffffffffffffffffffffffffffffffffffff1673ffffffffffffffffffffffffffffffffffffffff1681526020019081526020016000205442101561034a576040517f08c379a000000000000000000000000000000000000000000000000000000000815260040161034190610725565b60405180910390fd5b60008060003073ffffffffffffffffffffffffffffffffffffffff1673ffffffffffffffffffffffffffffffffffffffff16815260200190815260200160002054905060008060003073ffffffffffffffffffffffffffffffffffffffff1673ffffffffffffffffffffffffffffffffffffffff16815260200190815260200160002081905550806000803373ffffffffffffffffffffffffffffffffffffffff1673ffffffffffffffffffffffffffffffffffffffff168152602001908152602001600020600082825461041f91906106a5565b9250508190555050565b600080fd5b600073ffffffffffffffffffffffffffffffffffffffff82169050919050565b60006104598261042e565b9050919050565b6104698161044e565b811461047457600080fd5b50565b60008135905061048681610460565b92915050565b6000602082840312156104a2576104a1610429565b5b60006104b084828501610477565b91505092915050565b6000819050919050565b6104cc816104b9565b82525050565b60006020820190506104e760008301846104c3565b92915050565b6104f6816104b9565b811461050157600080fd5b50565b600081359050610513816104ed565b92915050565b600080604083850312156105305761052f610429565b5b600061053e85828601610504565b925050602061054f85828601610504565b9150509250929050565b600082825260208201905092915050565b7f496e73756666696369656e742062616c616e6365000000000000000000000000600082015250565b60006105a0601483610559565b91506105ab8261056a565b602082019050919050565b600060208201905081810360008301526105cf81610593565b9050919050565b7f4475726174696f6e206d7573742062652067726561746572207468616e203000600082015250565b600061060c601f83610559565b9150610617826105d6565b602082019050919050565b6000602082019050818103600083015261063b816105ff565b9050919050565b7f4e487b7100000000000000000000000000000000000000000000000000000000600052601160045260246000fd5b600061067c826104b9565b9150610687836104b9565b925082820390508181111561069f5761069e610642565b5b92915050565b60006106b0826104b9565b91506106bb836104b9565b92508282019050808211156106d3576106d2610642565b5b92915050565b7f546f6b656e7320617265207374696c6c206c6f636b6564000000000000000000600082015250565b600061070f601783610559565b915061071a826106d9565b602082019050919050565b6000602082019050818103600083015261073e81610702565b905091905056fea2646970667358221220093b2013f485f00c175b5125d0f2b0ee3e4ded1277f7381e0f4436525766bd8364736f6c63430008130033",
  "linkReferences": {},
  "deployedLinkReferences": {}
}